{
  "contractName": "Adoption",
  "abi": [
    {
      "constant": true,
      "inputs": [
        {
          "name": "",
          "type": "uint256"
        }
      ],
      "name": "adopters",
      "outputs": [
        {
          "name": "",
          "type": "address"
        }
      ],
      "payable": false,
      "stateMutability": "view",
      "type": "function"
    },
    {
      "constant": true,
      "inputs": [
        {
          "name": "",
          "type": "uint256"
        }
      ],
      "name": "prices",
      "outputs": [
        {
          "name": "",
          "type": "uint256"
        }
      ],
      "payable": false,
      "stateMutability": "view",
      "type": "function"
    },
    {
      "inputs": [],
      "payable": false,
      "stateMutability": "nonpayable",
      "type": "constructor"
    },
    {
      "constant": false,
      "inputs": [
        {
          "name": "petId",
          "type": "uint256"
        }
      ],
      "name": "adopt",
      "outputs": [
        {
          "name": "",
          "type": "uint256"
        }
      ],
      "payable": true,
      "stateMutability": "payable",
      "type": "function"
    },
    {
      "constant": true,
      "inputs": [],
      "name": "getAdopters",
      "outputs": [
        {
          "name": "",
          "type": "address[16]"
        },
        {
          "name": "",
          "type": "uint256[16]"
        }
      ],
      "payable": false,
      "stateMutability": "view",
      "type": "function"
    }
  ],
  "bytecode": "0x608060405234801561001057600080fd5b5060008090505b601081101561004857670de0b6b3a764000060108260108110151561003857fe5b0181905550806001019050610017565b50610463806100586000396000f3fe608060405260043610610062576000357c0100000000000000000000000000000000000000000000000000000000900463ffffffff1680633de4eb171461006757806343ae80d3146100e95780638588b2c514610164578063bc31c1c1146101a6575b600080fd5b34801561007357600080fd5b5061007c6101f5565b6040518083601060200280838360005b838110156100a757808201518184015260208101905061008c565b5050505090500182601060200280838360005b838110156100d55780820151818401526020810190506100ba565b505050509050019250505060405180910390f35b3480156100f557600080fd5b506101226004803603602081101561010c57600080fd5b81019080803590602001909291905050506102c5565b604051808273ffffffffffffffffffffffffffffffffffffffff1673ffffffffffffffffffffffffffffffffffffffff16815260200191505060405180910390f35b6101906004803603602081101561017a57600080fd5b81019080803590602001909291905050506102fa565b6040518082815260200191505060405180910390f35b3480156101b257600080fd5b506101df600480360360208110156101c957600080fd5b81019080803590602001909291905050506103d5565b6040518082815260200191505060405180910390f35b6101fd6103ef565b610205610413565b6000601081601080602002604051908101604052809291908260108015610277576020028201915b8160009054906101000a900473ffffffffffffffffffffffffffffffffffffffff1673ffffffffffffffffffffffffffffffffffffffff168152602001906001019080831161022d575b50505050509150806010806020026040519081016040528092919082601080156102b6576020028201915b8154815260200190600101908083116102a2575b50505050509050915091509091565b6000816010811015156102d457fe5b016000915054906101000a900473ffffffffffffffffffffffffffffffffffffffff1681565b600080821015801561030d5750600f8211155b151561031857600080fd5b60108260108110151561032757fe5b0154341015151561033757600080fd5b607860108360108110151561034857fe5b0160008282540292505081905550606460108360108110151561036757fe5b01600082825481151561037657fe5b04925050819055503360008360108110151561038e57fe5b0160006101000a81548173ffffffffffffffffffffffffffffffffffffffff021916908373ffffffffffffffffffffffffffffffffffffffff160217905550819050919050565b6010816010811015156103e457fe5b016000915090505481565b61020060405190810160405280601090602082028038833980820191505090505090565b6102006040519081016040528060109060208202803883398082019150509050509056fea165627a7a72305820d6a9419f39d15ac73c7e60621bc5a5e7feed93c3d7a2b690f3cbb5531aa9f6500029",
  "source": "pragma solidity ^0.5.0;\n\ncontract Adoption {\n  address[16] public adopters;\n  uint[16] public prices;\n\n  constructor() public {\n    for (uint i=0;i<16;++i) {\n      prices[i] = 1 ether;  \n    }\n  }\n\n  // Adopting a pet\n  function adopt(uint petId) public payable returns (uint) {\n    require(petId >= 0 && petId <= 15);\n    require(msg.value >= prices[petId]);\n\n    prices[petId] *= 120;\n    prices[petId] /= 100;\n\n    adopters[petId] = msg.sender;\n    return petId;\n  }\n\n  // Retrieving the adopters\n  function getAdopters() public view returns (address[16] memory, uint[16] memory) {\n    return (adopters,  prices);\n  }\n}",
  "sourcePath": "/Users/minakokojima/Documents/pet/contracts/Adoption.sol",
  "compiler": {
    "name": "solc",
    "version": "0.5.0+commit.1d4f565a.Emscripten.clang"
  },
  "schemaVersion": "3.0.9",
  "updatedAt": "2019-05-18T07:08:26.460Z",
  "devdoc": {
    "methods": {}
  },
  "userdoc": {
    "methods": {}
  }
}